:100000000C9460030C947D030C947D030C947D038D
:100010000C947D030C947D030C947D030C947D0360
:100020000C947D030C947D030C947D030C947D0350
:100030000C947D030C947D030C947D030C947D0340
:100040000C947D030C947D030C947D030C947D0330
:100050000C947D030C947D030C947D030C947D0320
:100060000C947D030C947D030C947D030C947D0310
:1000700000000000005C00000C000C007C287C28C4
:1000800058DC68002410480028542840000C000068
:10009000007884008478000054385400107C1000EC
:1000A00080400000101010000040000060100C00A4
:1000B00038543800487C40004864580044542C00B0
:1000C0001C107C005C5424003854240064140C0080
:1000D00068542C0048543800004800008048000054
:1000E0001028440028282800442810000454080040
:1000F00038445C00781478007C5428003844280088
:100100007C4438007C5444007C140400384474005F
:100110007C107C00447C440020403C007C106C003F
:100120007C4040007C187C0078103C00384438004B
:100130007C1408003844B8007C146800485424003B
:10014000047C04007C407C003C603C007C307C00F3
:100150006C106C000C700C0064544C00007C44006B
:100160000C106000447C00000804080080808000BF
:1001700000040800304878007C48300030484800CF
:1001800030487C00306850001078140090A8780047
:100190007C08700050744000808074007C106800FF
:1001A000447C4000781078007808700030483000B7
:1001B000F82810003048F80078100800505828003F
:1001C000083C4800384078003840380078207800F3
:1001D0004830480098A0780048685800107884009B
:1001E000007C00008478100008040804000000006F
:1001F0000000005F00000007000700147F147F1458
:10020000242A7F2A1223130864623649552250009B
:1002100005030000001C2241000041221C00082AA6
:100220001C2A0808083E080800503000000808088A
:100230000808006060000020100804023E51494593
:100240003E00427F400042615149462141454B31C9
:100250001814127F1027454545393C4A4949300159
:10026000710905033649494936064949291E0036B0
:100270003600000056360000000814224114141401
:10028000141441221408000201510906324979412F
:100290003E7E1111117E7F494949363E414141223E
:1002A0007F4141221C7F494949417F090901013EA3
:1002B000414151327F0808087F00417F41002040C2
:1002C000413F017F081422417F404040407F0204AB
:1002D000027F7F0408107F3E4141413E7F090909AA
:1002E000063E4151215E7F09192946464949493157
:1002F00001017F01013F4040403F1F2040201F7F00
:100300002018207F631408146303047804036151E8
:1003100049454300007F4141020408102041417FCC
:100320000000040201020440404040400001020479
:100330000020545454787F4844443838444444207E
:10034000384444487F3854545418087E0901020840
:100350001454543C7F0804047800447D400020403D
:10036000443D00007F10284400417F40007C041879
:1003700004787C0804047838444444387C14141409
:1003800008081414187C7C080404084854545420A9
:10039000043F4440203C4040207C1C2040201C3C2A
:1003A0004030403C44281028440C5050503C446499
:1003B000544C44000836410000007F0000004136E4
:1003C000080002010302010000000000000000001C
:1003D000065F5F0600000000070700070700001423
:1003E0007F7F147F7F1400242E6B6B3A120000462F
:1003F0006630180C666200307A4F5D377A48000428
:1004000007030000000000001C3E634100000000E4
:1004100041633E1C000000082A3E1C1C3E2A0808BE
:10042000083E3E0808000000A0E060000000000850
:100430000808080808000060600000000000006074
:1004400030180C060301003E7F594D7F3E000042EC
:10045000427F7F40400000627359496F660000226E
:100460006349497F360000181C16137F7F10002750
:100470006745457D3900003C7E4B497930000003DB
:100480006371190F070000367F49497F3600000667
:100490004F49693F1E000000006C6C000000000026
:1004A000A0EC6C00000000081C3663410000001442
:1004B00014141414140000004163361C08000002D8
:1004C0000351590F0600003E7F415D5D1F1E007CF9
:1004D0007E13137E7C0000417F7F49497F36001CDC
:1004E0003E634141632200417F7F41637F1C0041A5
:1004F0007F7F495D416300417F7F491D0103001CEF
:100500003E6341517372007F7F08087F7F000000C7
:10051000417F7F41000000307040417F3F0100413A
:100520007F7F081C776300417F7F41406070007FC0
:100530007F060C067F7F007F7F060C187F7F001CE4
:100540003E6341633E1C00417F7F49090F06001E48
:100550003F21717F5E0000417F7F19396F46002681
:10056000674D597B32000003417F7F410300007FCC
:100570007F40407F7F00001F3F60603F1F00007F83
:100580007F3018307F7F0063771C081C776300077B
:100590004F78784F0700006773594D47637100002B
:1005A0007F7F41410000000103060C18306000000D
:1005B00041417F7F000000080C0603060C08008004
:1005C000808080808080800000030704000000207D
:1005D0007454543C784000413F7F44447C38003898
:1005E0007C44446C280000307848493F7F40003804
:1005F0007C54545C180000487E7F49030200009838
:10060000BCA4A4F87C0400417F7F08047C7800002F
:10061000447D7D4000000040C484FD7D0000004119
:100620007F7F10386C440000417F7F400000007CD9
:100630007C0C180C7C78007C7C04047C78000038EE
:100640007C44447C38000084FCF8A4243C18001846
:100650003C24A4F8FC8400447C78441C1800004826
:100660005C54547424000000043E7F442400003C89
:100670007C40403C7C40001C3C60603C1C00003CDA
:100680007C6030607C3C00446C3810386C44009CCA
:10069000BCA0A0FC7C00004C64745C4C64000008AE
:1006A000083E7741410000000000777700000041DC
:1006B00041773E0808000002030103020301000025
:1006C00011241FBECFEFD4E0DEBFCDBF13E0A0E00A
:1006D000B1E0EAECFFE102C005900D92A43FB10742
:1006E000D9F723E0A4EFB3E001C01D92AE3FB207FB
:1006F000E1F70E947F030C94E30F0C940000CF936A
:10070000DF938FE190E00E94BE030E9489060E9461
:100710006A060E94FC040E94B6088EE00E94CB0983
:100720001F928F938AE091E09F938F930E94840C95
:100730008BE090E00E94BC0AEC0145E151E063E2ED
:1007400071E00E942509CE010E94DC08CE010E94C2
:100750003609CE010E94540B0F900F900F900F900E
:10076000DF91CF9108955F9BFECF8CB190E008950B
:100770005D9BFECF8CB980E090E0089590BD89B973
:1007800088E18AB92AB181E090E002C0880F991F00
:100790002A95E2F7866880BD63EB73E088EB93E00F
:1007A0000E94390C08958BE191E09F938F930E94F2
:1007B000840C0F900F900F2EA12CF8E1BF2EF02D7E
:1007C0000F2EFFE0FF2EF02DEF2C00E311E00F2E97
:1007D000C12CF4E1DF2EF02DC0E4D1E0F501E08280
:1007E0001F930F930E94840CFFEF2FEF8EE0F150C8
:1007F00020408040E1F700C00000F601F082DF9366
:10080000CF930E94840C8FEF9FEFEEE081509040D9
:10081000E040E1F700C000000F900F900F900F90A4
:10082000DDCF985EFC0160830895985EFC018081B5
:100830000895CF92DF92EF92FF920F931F93CF9381
:10084000DF938FE491E00E94A10C0E94290C7C01AF
:100850000E942E0CC12CD12C00E010E0C6E6D1E0A5
:100860000E94290CF601F85E808320812817A9F0E8
:1008700099279F938F931F922F93DF92CF92DF93AD
:10088000CF930E94840C0F5F1F4F8DB79EB70896C1
:100890000FB6F8949EBF0FBE8DBF9FEFC91AD90A3D
:1008A000C11488E0D806E1F6C7010E942E0CC0E012
:1008B000D0E0E12CF12C0F2EF0EACF2EF1E0DF2E6C
:1008C000F02D0E94290CFE01F85E20812817B1F05E
:1008D00099279F938F931F922F93DF93CF93DF924C
:1008E000CF920E94840C9FEFE91AF90A8DB79EB748
:1008F00008960FB6F8949EBF0FBE8DBF2196C11506
:1009000098E0D907F1F6FF92EF921F930F938EEDC7
:1009100091E09F938F930E94840C0F900F900F9003
:100920000F900F900F90DF91CF911F910F91FF903B
:10093000EF90DF90CF900895823848F08F3B50F4CD
:10094000623858F06F3B60F484E090E0089580E0F6
:1009500090E0089581E090E0089583E090E00895AC
:1009600082E090E008954F925F926F927F928F9213
:100970009F92AF92BF92CF92DF92EF92FF9280E070
:1009800090E0DC019C01990F440B550B2D01BB0F2E
:100990006608770888EE93E00197F1F7A8EEB3E0D8
:1009A0000E949D0A0F2EF8EECF2EF3E0DF2EE12CF1
:1009B000F12CF02DA70196010E946C0A49015A0101
:1009C000A8EEB3E0A30192010E949D0AA70196013F
:1009D0000E946C0A280D391DC90196958795FF90D4
:1009E000EF90DF90CF90BF90AF909F908F907F90CF
:1009F0006F905F904F900895E0E0F0E18EEA808381
:100A000081EA80838AED808382E1808388EC808321
:100A100088EA80838FE3808385ED808380E880830C
:100A200081E8808380E5808389ED808381E2808313
:100A300080E2808382E080838BED808380E380830B
:100A40008DEA8083108284EA808386EA80838FEA3D
:100A500080830895FF920F931F93CF93DF93F62E19
:100A60008C01C0E0D0E08F2D0E947D06880F991F79
:100A7000880F991F880F991FFC01EC0FFD1FE95388
:100A8000FC4FE491D801ED938D012196C830D1053A
:100A900051F7DF91CF911F910F91FF9008950F9320
:100AA0001F93CF93DF93082F162F88E090E00E94CA
:100AB000BC0AEC01602F0E942A05FE019E01285FFE
:100AC0003F4FA0E0B2E1112321F0808180958C930B
:100AD00002C080818C933196E217F307A1F7CE0113
:100AE0000E94540BDF91CF911F910F910895809335
:100AF00000100895809300120895883018F48055EE
:100B000080930010089588234CF0982F9F70E0E0A8
:100B1000F0E1908382958F70805F80830895CF93FA
:100B2000C62F0E947D058C2F0E948305CF910895CA
:100B30000F931F93CF93DF93D82FC0E000E012E113
:100B40006C2F8D2F0E948F05F8011082CF5FC03867
:100B5000B9F7DF91CF911F910F9108950F931F93D4
:100B6000CF93DF93D0E000E012E10CC06C2F8D2F0B
:100B70000E948F05F8011082CF5FC038B9F7DF5FA0
:100B8000D83011F0C0E0F2CFDF91CF911F910F91DB
:100B90000895FF920F931F93CF93DF93FC01308151
:100BA0003323C1F0022FF62E142FEC01612F8F2D6D
:100BB0000E948F05002329F0602F88810E944F0535
:100BC00004C060E088810E944F052196185F8881EB
:100BD0008111ECCFDF91CF911F910F91FF9008957C
:100BE0000E948F05E0E0F2E188E1808380839EE748
:100BF00090839CE3908380830895CF93C0E06C2F13
:100C000080E00E94F0052FEF8FE794E021508040B4
:100C10009040E1F700C00000CB5FC23881F7CF9170
:100C200008950F931F93CF93DF93D82FC0E000E078
:100C300012E16C2F8D2F0E948F05F8011082CF5F7B
:100C4000C830B9F7DF91CF911F910F910895CF93DD
:100C5000DF93D82FC62F6430C9F16230B8F10E94FB
:100C6000110660E08D2F0E948F07C23039F48D2F5E
:100C700090E0019702975CF0D1500CC0C33051F462
:100C80008D2F90E00196069724F4DF5F03C0D5E036
:100C900001C0D2E061E08D2F0E948F0760E08D2FB0
:100CA0000E94F0058C2F0C2E000C990B9F93CF9374
:100CB0001F92DF938BE392E09F938F930E94840CAB
:100CC0000F900F900F900F900F900F908D2FDF913E
:100CD000CF91089585B7806885BF80B7877F80BF33
:100CE00080B78F7E80BF80B78F7D80BF80B78062E6
:100CF00080BF8FB780688FBF089590EE980F9F35A3
:100D000028F4082E000C990B809708958FEF9FEF21
:100D100008958D9A8C98BF98C79A8EB580618EBDC4
:100D20008EB588608EBD8FB582608FBD8FB58E7F8A
:100D30008FBD8FB580688FBD8FB58F7B8FBD8EB512
:100D400081608EBD8EB58D7F8EBD8EB58B7F8EBD45
:100D500081E090E09BBD8ABD83E090E095BD84BDBD
:100D6000B898B9980895FC011092001400C000C012
:100D70000000849BFECF8091001481838091011438
:100D80008083809102148283809103148383089569
:100D90008AE592E09F938F930E94840C84E090E018
:100DA0000E94BC0AEC010F900F900BE612E0CE01FE
:100DB0000E94B3068B811F928F938A811F928F931B
:100DC00089811F928F9388811F928F931F930F9316
:100DD0000E94840C2FEF8FE791E0215080409040DB
:100DE000E1F700C000C08DB79EB70A960FB6F89421
:100DF0009EBF0FBE8DBFDBCFCF92DF92EF92FF92EF
:100E00001F93CF93DF931AE0C0E0D0E00F2EC12CE8
:100E1000F4E1DF2EF02D0F2EFCE8EF2EF2E0FF2E96
:100E2000F02DF6011082F4EAFA95F1F7F6018081CF
:100E3000C80FD11DDF93CF931F928F93FF92EF9234
:100E40000E94840C11500F900F900F900F900F90F4
:100E50000F9039F79E01ADECBCEC0E948E0AEC01BC
:100E6000D695C795D695C795D695C795CE0199279E
:100E70009F938F938FEA92E09F938F930E94840CAD
:100E80000F900F900F900F908C2FDF91CF911F91AB
:100E9000FF90EF90DF90CF900895282F30E02550FD
:100EA000310944E6429FC001439F900D11246AEF2F
:100EB00070E00E94580A862F08950E94AE05BA98E5
:100EC000C29A08950E94AE0520E040E360E08CEBFA
:100ED00092E00E94C90520E040E061E08AE392E0F0
:100EE0000E94C90520E048E062E081EC92E00E94A7
:100EF000C90520E048E063E088EC92E00E94C90563
:100F000020E048E064E084ED92E00E94C90520E022
:100F100048E065E08FED92E00E94C90508958330B6
:100F200089F018F4823031F00895843099F08530DA
:100F3000C9F00895262F48E062E081EC92E00E941B
:100F4000C9050895262F48E063E088EC92E00E94EE
:100F5000C9050895262F48E064E084ED92E00E94E0
:100F6000C9050895262F48E065E08FED92E00E94C4
:100F7000C905089586EE92E09F938F930E94840C9A
:100F80000F900F9081E090E008958DEE92E09F9396
:100F90008F930E94840C0F900F9081E090E0089551
:100FA00089EF92E09F938F930E94840C0F900F9093
:100FB00081E090E0089584E093E09F938F930E94F6
:100FC000840C0F900F9081E090E0089586B382FB2F
:100FD000882780F991E089270895EF92FF920F9377
:100FE0001F93CF93DF930E94620784E090E00E94FA
:100FF000BC0A8C0163E081E00E942706C82F8BE0C9
:1010000093E09F938F930E94840C0F900F90D2E0F7
:101010000F2EF0E2EF2EF3E0FF2EF02DC8010E941C
:10102000B306F801618170E0808190E00E949C0429
:10103000682F8C2F0E942706C82FD81799F01F926F
:101040008F93FF92EF920E94840CFFEF2FEF82E0CC
:10105000F15020408040E1F700C000C00F900F9099
:101060000F900F900E94E607DC2F8823B9F288E3E7
:1010700093E09F938F930E94840C9FEFEFEFF2E039
:101080009150E040F040E1F700C000C0C8010E946C
:10109000540B0F900F908C2F90E0DF91CF911F9108
:1010A0000F91FF90EF90089583309105D9F030F4BF
:1010B0008130910549F0029751F035C08430910597
:1010C000E1F0059729F12FC00E94ED07089586EE03
:1010D00092E09F938F930E94840C0F900F9081E079
:1010E00090E008958DEE92E09F938F930E94840C80
:1010F0000F900F9081E090E0089589EF92E09F9328
:101100008F930E94840C0F900F9081E090E00895DF
:1011100084E093E09F938F930E94840C0F900F9034
:1011200081E090E0089581E090E00895C4980895EA
:10113000C49A0895BD9ABF9ABE98C698BC9A0E9458
:1011400098086E9A6C9A689A6B986A9808958FB905
:10115000779BFECF8FB108958FEF8FB9779BFECF2E
:101160008FB108958FB9779BFECF08950E94DD0956
:1011700060E680E60E940A0A60E680E70E940A0AAA
:1011800063E08BE20E940A0A60E08CE20E940A0A95
:101190004FEF6BE48AE20E94380A4FEF6BED89E271
:1011A0000E94380A4FEF65E088E20E94380A60E446
:1011B0008FE00E940A0A0895CF92DF92EF92FF9289
:1011C0001F93CF93DF936C01FC01618181E30E9447
:1011D0000A0AF601608182E30E940A0AF60162812E
:1011E00085E30E940A0AF60182818823A9F076012C
:1011F000F3E0EF0EF11C16E3C0E0D0E0F7016191DF
:101200007F01812F0E940A0A21961F5FF6018281C9
:1012100090E0C817D90794F381E80E941E0AF601EE
:1012200083811F928F9389E493E09F938F930E9411
:10123000840C0F900F900F900F90DF91CF911F9122
:10124000FF90EF90DF90CF900895FC017183608351
:1012500028E02283A42FB52F33969C01255F3F4FB2
:101260009D919193E217F307D9F70895CF93DF93F8
:10127000EC0189818F9388818F9383E693E09F931C
:101280008F930E94840C8B810F900F900F900F9082
:10129000882339F0249690E00E949A0C899181115C
:1012A000FACF80EC93E09F938F930E94840C0F9071
:1012B0000F90DF91CF9108958F929F92AF92BF923E
:1012C000CF92DF92EF92FF920F931F93CF93DF9312
:1012D000CDB7DEB72B970FB6F894DEBF0FBECDBFEC
:1012E0004C0181E60E94CB09A82E82E60E94CB0920
:1012F000B12CBA2CAA24A82A85E60E94CB09082F73
:101300000F70A9F07E0124E0E20EF11CCE01800FE7
:10131000911DFC0134966F0116E6812F0E94CB09C6
:10132000F70181937F011F5FEC15FD05B1F78C81FB
:101330001F928F938CE693E09F938F930E94840C6F
:10134000BA82A9820B838BE0FE013196D401019011
:101350000D928A95E1F70F900F900F900F90C401B6
:101360002B960FB6F894DEBF0FBECDBFDF91CF91A5
:101370001F910F91FF90EF90DF90CF90BF90AF90B3
:101380009F908F9008950E94960880EC0E94B2086A
:101390000E9498080895CF93C82F0E94960883E072
:1013A0000E94B2088C2F0E94B2080E94AC08C82F7D
:1013B0000E9498088C2FCF910895CF930E949A088D
:1013C0000E94C3098EE00E94CB09C82F1F928F9301
:1013D00083E893E09F938F930E94840CC07E0F90CC
:1013E0000F900F900F90C03851F08FE893E09F93CB
:1013F0008F930E94840C0F900F9081E009C083ECC2
:1014000093E09F938F930E94840C0F900F9080E045
:10141000CF910895CF93DF93D82FC62F0E949608BF
:1014200082E00E94B2088D2F0E94B2088C2F0E9489
:10143000B2080E949808DF91CF910895CF93C82FEA
:101440000E9496088C2F0E94A7080E949808CF91AE
:101450000895CF930E94960880EA0E94A70880E032
:101460000E94A708C82F0E9498088C2FCF9108953A
:101470001F93CF93DF93182FD62FC42F0E94960867
:1014800085E00E94B208812F0E94B2088D2F0E9431
:10149000B2088C2F0E94B2080E949808DF91CF9169
:1014A0001F910895482F60EE8FE00E94380A08953A
:1014B00097FB072E16F4009407D077FD09D00E9401
:1014C000A80A07FC05D03EF4909581959F4F08959A
:1014D000709561957F4F0895A1E21A2EAA1BBB1B40
:1014E000FD010DC0AA1FBB1FEE1FFF1FA217B307F0
:1014F000E407F50720F0A21BB30BE40BF50B661F06
:10150000771F881F991F1A9469F7609570958095C9
:1015100090959B01AC01BD01CF010895A29FB00140
:10152000B39FC001A39F700D811D1124911DB29F17
:10153000700D811D1124911D08950E948E0AA59F92
:10154000900DB49F900DA49F800D911D11240895BE
:10155000AA1BBB1B51E107C0AA1FBB1FA617B707D9
:1015600010F0A61BB70B881F991F5A95A9F78095F5
:101570009095BC01CD0108950F931F93CF93DF93F6
:101580008230910510F482E090E0E091F603F09152
:10159000F70320E030E0A0E0B0E0309719F140819F
:1015A00051810281138148175907C8F084179507A4
:1015B00069F4109731F012960C93129713961C93BE
:1015C00027C00093F6031093F70322C021153105BD
:1015D00019F04217530718F49A01BD01EF01DF011A
:1015E000F801DBCF21153105F9F0281B390B243028
:1015F000310580F48A819B816115710521F0FB0121
:101600009383828304C09093F7038093F603FE01D3
:10161000329644C0FE01E20FF31F81939193225052
:101620003109398328833AC02091F4033091F503BE
:10163000232B41F420910201309103013093F503F3
:101640002093F4032091000130910101211531050F
:1016500041F42DB73EB74091040150910501241B80
:10166000350BE091F403F091F503E217F307A0F4D2
:101670002E1B3F0B2817390778F0AC014E5F5F4FE8
:101680002417350748F04E0F5F1F5093F503409322
:10169000F4038193919302C0E0E0F0E0CF01DF9189
:1016A000CF911F910F910895CF93DF93009709F485
:1016B00081C0FC01329713821282A091F603B0918F
:1016C000F703109781F420813181820F931F2091BD
:1016D000F4033091F5032817390751F5F093F5031A
:1016E000E093F40367C0ED0120E030E0CE17DF07A0
:1016F00040F44A815B819E0141155105F1F0EA01F8
:10170000F5CFD383C28340815181840F951FC817C1
:10171000D90759F488819981840F951F0296918386
:1017200080838A819B81938382832115310529F4EB
:10173000F093F703E093F6033DC0E901FB83EA83EE
:1017400049915991C40FD51FEC17FD0761F48081B1
:101750009181840F951F0296E90199838883828184
:1017600093819B838A83E0E0F0E012968D919C91B7
:101770001397009719F0FD01DC01F7CF8D919C9133
:1017800011979D012E5F3F4F820F931F2091F4030D
:101790003091F5032817390769F4309729F410922E
:1017A000F7031092F60302C013821282B093F5037E
:1017B000A093F403DF91CF9108958F929F92AF92FF
:1017C000BF92CF92DF92EF92FF92CF93DF93EC0123
:1017D000688179818A819B816115710581059105F7
:1017E00021F464E279ED8BE597E02DE133EF41E000
:1017F00050E00E94850F49015A019B01AC01A7EA04
:10180000B1E40E949D0A6B017C01ACEEB4EFA5012E
:1018100094010E94A70FDC01CB018C0D9D1DAE1D14
:10182000BF1DB7FF03C00197A109B0488883998302
:10183000AA83BB839F77DF91CF91FF90EF90DF90DA
:10184000CF90BF90AF909F908F9008950E94DD0B36
:10185000089586E091E00E94DD0B0895A0E0B0E0DD
:101860008093060190930701A0930801B0930901AA
:1018700008950F931F93CF93DF93009731F4611571
:10188000710519F480E090E03AC08B01EC016EE044
:1018900070E081E090E00E94B20EFC01892B91F390
:1018A00080E883830115110571F01387028781E8B1
:1018B00083838091F8039091F903892B21F4F093AD
:1018C000F903E093F8032097C9F0D187C08783819B
:1018D000826083838091FA039091FB03892B71F4DA
:1018E000F093FB03E093FA038091FC039091FD03D6
:1018F000892B21F4F093FD03E093FC03CF01DF91EA
:10190000CF911F910F910895A0E0B0E0EAE8FCE0CC
:101910000C94BC0FAE014B5F5F4FFA016191719166
:10192000AF018091FA039091FB030E94D10CE2E099
:101930000C94D80F6091FA037091FB030E94EB0E98
:1019400008950F931F93CF93DF93E091FA03F091E3
:10195000FB03238121FF1BC08C01D0E0C0E0F80114
:1019600081918F016091FA037091FB03DB0118965E
:10197000ED91FC911997882331F00995892B79F322
:10198000DFEFCFEFECCF8AE00995892B19F08FEFCD
:101990009FEF02C08D2F9C2FDF91CF911F910F9150
:1019A0000895ABE0B0E0E7EDFCE00C94AC0F6C0107
:1019B0007B018A01FC0117821682838181FFCCC1E1
:1019C000CE0101963C01F6019381F70193FD8591CB
:1019D00093FF81917F01882309F4BAC1853239F4DC
:1019E00093FD859193FF81917F01853229F4B601A2
:1019F00090E00E94EB0EE7CF912C212C312CFFE1DF
:101A0000F315D8F08B3279F038F4803279F08332E4
:101A1000A1F4232D20611DC08D3261F0803369F463
:101A2000232D216016C0832D8260382EE32DE460C3
:101A30003E2E2AC0F32DF8601DC037FC2DC020EDCE
:101A4000280F2A3040F08E32B9F436FC81C1232DA4
:101A50002064322E19C036FE06C08AE0989E200D02
:101A60001124922E11C0EAE02E9E200D1124222E68
:101A7000F32DF0623F2E08C08C3621F4832D806850
:101A8000382E02C0883641F4F70193FD859193FF0B
:101A900081917F018111B3CF982F9F7D9554933011
:101AA00028F40C5F1F4F9FE399830DC0833631F0FC
:101AB000833771F0833509F059C021C0F801808166
:101AC00089830E5F1F4F88248394912C530113C088
:101AD0002801F2E04F0E511CF801A080B18036FEC3
:101AE00003C0692D70E002C06FEF7FEFC5010E9457
:101AF000E00E4C018201F32DFF773F2E16C0280126
:101B000022E0420E511CF801A080B18036FE03C0D5
:101B1000692D70E002C06FEF7FEFC5010E94CE0E0D
:101B20004C01F32DF0683F2E820133FC1BC0822D47
:101B300090E088169906B0F4B60180E290E00E9429
:101B4000EB0E2A94F4CFF50137FC859137FE819195
:101B50005F01B60190E00E94EB0E21102A9421E073
:101B6000821A91088114910471F7E8C0843611F04B
:101B7000893641F5F80137FE07C0608171818281A5
:101B800093810C5F1F4F08C060817181072E000C8C
:101B9000880B990B0E5F1F4FF32DFF763F2E97FF9B
:101BA00009C090958095709561957F4F8F4F9F4F9D
:101BB000F0683F2E2AE030E0A3010E94270F882E14
:101BC000861845C0853731F4232D2F7EB22E2AE0AA
:101BD00030E025C0932D997FB92E8F36C1F018F4CF
:101BE000883579F0B5C0803719F0883721F0B0C05A
:101BF000E92FE061BE2EB4FE0DC0FB2DF460BF2EB8
:101C000009C034FE0AC0292F2660B22E06C028E083
:101C100030E005C020E130E002C020E132E0F80110
:101C2000B7FE07C060817181828193810C5F1F4F75
:101C300006C06081718180E090E00E5F1F4FA301BC
:101C40000E94270F882E8618FB2DFF773F2E36FE29
:101C50000DC0232D2E7FA22E891458F434FE0BC004
:101C600032FC09C0832D8E7EA82E05C0B82CA32C73
:101C700003C0B82C01C0B92CA4FE0FC0FE01E80DB2
:101C8000F11D8081803321F49A2D997EA92E09C0FF
:101C9000A2FE06C0B394B39404C08A2D867809F0DE
:101CA000B394A3FC11C0A0FE06C0B21488F4280CA3
:101CB000922C9B180EC0B21460F4B60180E290E042
:101CC0000E94EB0EB394F7CFB21418F42B1802C095
:101CD000982C212CA4FE10C0B60180E390E00E9455
:101CE000EB0EA2FE17C0A1FC03C088E790E002C083
:101CF00088E590E0B6010CC08A2D867859F0A1FEE7
:101D000002C08BE201C080E2A7FC8DE2B60190E048
:101D10000E94EB0E891438F4B60180E390E00E9433
:101D2000EB0E9A94F7CF8A94F301E80DF11D8081B0
:101D3000B60190E00E94EB0E8110F5CF222009F44D
:101D400042CEB60180E290E00E94EB0E2A94F6CFDC
:101D5000F6018681978102C08FEF9FEF2B96E2E11B
:101D60000C94C80F0F931F93CF93DF93869F80012E
:101D7000879F100D969F100D1124C8010E94BC0A68
:101D8000EC01009729F0A80160E070E00E94D90EF4
:101D9000CE01DF91CF911F910F910895FC01059025
:101DA000615070400110D8F7809590958E0F9F1F5D
:101DB0000895DC0101C06D9341505040E0F7089553
:101DC000FC016150704001900110D8F7809590950A
:101DD0008E0F9F1F08950F931F93CF93DF93FB01E7
:101DE000238121FD03C08FEF9FEF2CC022FF16C07F
:101DF00046815781248135814217530744F4A081DD
:101E0000B1819D012F5F3F4F318320838C932681C9
:101E100037812F5F3F4F3783268314C08B01EC013E
:101E2000FB010084F185E02D0995892BE1F6D801AD
:101E300016968D919C911797019617969C938E9369
:101E40001697CE01DF91CF911F910F910895FA015E
:101E5000AA27283051F1203181F1E8946F936E7FE9
:101E60006E5F7F4F8F4F9F4FAF4FB1E03ED0B4E0DA
:101E70003CD0670F781F891F9A1FA11D680F791F1B
:101E80008A1F911DA11D6A0F711D811D911DA11D2C
:101E900020D009F468943F912AE0269F112430193C
:101EA000305D3193DEF6CF010895462F4770405DD7
:101EB0004193B3E00FD0C9F7F6CF462F4F70405D86
:101EC0004A3318F0495D31FD4052419302D0A9F7E1
:101ED000EACFB4E0A6959795879577956795BA95DB
:101EE000C9F700976105710508959B01AC010A2EA1
:101EF00006945795479537952795BA95C9F7620F78
:101F0000731F841F951FA01D0895052E97FB1EF4B7
:101F100000940E949C0F57FD07D00E946C0A07FC9A
:101F200003D04EF40C949C0F50954095309521951C
:101F30003F4F4F4F5F4F08959095809570956195F5
:101F40007F4F8F4F9F4F0895B7FF0C949D0A0E94BB
:101F50009D0A821B930B08952F923F924F925F929E
:101F60006F927F928F929F92AF92BF92CF92DF92A9
:101F7000EF92FF920F931F93CF93DF93CDB7DEB70E
:101F8000CA1BDB0B0FB6F894DEBF0FBECDBF0994A2
:101F90002A88398848885F846E847D848C849B84F9
:101FA000AA84B984C884DF80EE80FD800C811B8107
:101FB000AA81B981CE0FD11D0FB6F894DEBF0FBE36
:0A1FC000CDBFED010895F894FFCFA6
:101FCA000000FE032000010000004D6F64653A2006
:101FDA0025780A0D0048454C4C4F005374617274C1
:101FEA0065722070726F6772616D6D65740A0D009B
:101FFA005372616D2068C3B879206EC3A50A0D00BB
:10200A004144432068C3B879206EC3A50A0D005322
:10201A0074617274696E67205352414D20746573FE
:10202A00742E2E2E0D0057726974652070686173C4
:10203A0065206572726F723A206578745F72616D9D
:10204A005B2534645D203D20253032582028736892
:10205A006F756C642062652025303258290D0A009C
:10206A0052657472696576616C2070686173652067
:10207A006572726F723A206578745F72616D5B2562
:10208A0034645D203D2025303258202873686F75EE
:10209A006C642062652025303258290D0A0053529B
:1020AA00414D207465737420636F6D706C6574653F
:1020BA00642077697468200D0A2534642065727279
:1020CA006F727320696E2077726974652070686117
:1020DA00736520616E64200D0A253464206572726E
:1020EA006F727320696E2072657472696576616CAD
:1020FA002070686173650D0A0D0A004172726F776C
:10210A0020706F733A2025642C20446972656374C9
:10211A00696F6E3A2025640A0D00414443207465B4
:10212A0073742073746172740A0D004144432076FB
:10213A00616C7565733A202825642C202564292C46
:10214A00202825642C202564290A0D0041444320B7
:10215A0076616C75652025642C2063616C696272F6
:10216A006174696F6E2073756D2025640A0D004FC6
:10217A0066667365743A2025640A0D004D656E75AE
:10218A0000312E506C617900322E4869676873639A
:10219A006F726500332E53657474696E6773003409
:1021AA002E5175697400506C61790A0D004869678F
:1021BA006873636F72650A0D0053657474696E679C
:1021CA00730A0D00517569740A0D00456E746572C3
:1021DA00696E67206D61696E206D656E750A0D0006
:1021EA0043757272656E74206172726F7720706FB8
:1021FA00733A2025640A0D00427574746F6E20705C
:10220A007265737365640A0D005472616E736D6949
:10221A0074746564206D6573736167653A2025631C
:10222A000A0D0049443A2025780A0D005265636573
:10223A0069766564206D6573736167653A20256305
:10224A000A0D0056616C75653A2025640A0D004D29
:10225A00435032353135206973204E4F5420696E10
:10226A0020636F6E66696775726174696F6E206D3F
:10227A006F64652061667465722072657365742186
:10228A000A0D004D43503235313520697320696E8D
:10229A0020636F6E66696775726174696F6E206D0F
:1022AA006F64652061667465722072657365742156
:0422BA000A0D000009
:00000001FF
